{
  "_format": "hh-sol-artifact-1",
  "contractName": "EtherGame",
  "sourceName": "contracts/selfdestruct.sol",
  "abi": [
    {
      "inputs": [],
      "name": "claimReward",
      "outputs": [],
      "stateMutability": "nonpayable",
      "type": "function"
    },
    {
      "inputs": [],
      "name": "play",
      "outputs": [],
      "stateMutability": "payable",
      "type": "function"
    },
    {
      "inputs": [],
      "name": "targetAmount",
      "outputs": [
        {
          "internalType": "uint256",
          "name": "",
          "type": "uint256"
        }
      ],
      "stateMutability": "view",
      "type": "function"
    },
    {
      "inputs": [],
      "name": "winner",
      "outputs": [
        {
          "internalType": "address",
          "name": "",
          "type": "address"
        }
      ],
      "stateMutability": "view",
      "type": "function"
    }
  ],
  "bytecode": "0x6080604052674563918244f4000060005534801561001c57600080fd5b506105d68061002c6000396000f3fe60806040526004361061003f5760003560e01c806393e84cd914610044578063953b8fb81461004e578063b88a802f14610079578063dfbf53ae14610090575b600080fd5b61004c6100bb565b005b34801561005a57600080fd5b5061006361019e565b6040516100709190610486565b60405180910390f35b34801561008557600080fd5b5061008e6101a4565b005b34801561009c57600080fd5b506100a56102e3565b6040516100b291906103eb565b60405180910390f35b670de0b6b3a76400003414610105576040517f08c379a00000000000000000000000000000000000000000000000000000000081526004016100fc90610446565b60405180910390fd5b600047905060005481111561014f576040517f08c379a000000000000000000000000000000000000000000000000000000000815260040161014690610426565b60405180910390fd5b60005481141561019b5733600160006101000a81548173ffffffffffffffffffffffffffffffffffffffff021916908373ffffffffffffffffffffffffffffffffffffffff1602179055505b50565b60005481565b600160009054906101000a900473ffffffffffffffffffffffffffffffffffffffff1673ffffffffffffffffffffffffffffffffffffffff163373ffffffffffffffffffffffffffffffffffffffff1614610234576040517f08c379a000000000000000000000000000000000000000000000000000000000815260040161022b90610466565b60405180910390fd5b60003373ffffffffffffffffffffffffffffffffffffffff164760405161025a906103d6565b60006040518083038185875af1925050503d8060008114610297576040519150601f19603f3d011682016040523d82523d6000602084013e61029c565b606091505b50509050806102e0576040517f08c379a00000000000000000000000000000000000000000000000000000000081526004016102d790610406565b60405180910390fd5b50565b600160009054906101000a900473ffffffffffffffffffffffffffffffffffffffff1681565b610312816104bd565b82525050565b60006103256014836104ac565b9150610330826104f9565b602082019050919050565b6000610348600c836104ac565b915061035382610522565b602082019050919050565b600061036b6019836104ac565b91506103768261054b565b602082019050919050565b600061038e600a836104ac565b915061039982610574565b602082019050919050565b60006103b16000836104a1565b91506103bc8261059d565b600082019050919050565b6103d0816104ef565b82525050565b60006103e1826103a4565b9150819050919050565b60006020820190506104006000830184610309565b92915050565b6000602082019050818103600083015261041f81610318565b9050919050565b6000602082019050818103600083015261043f8161033b565b9050919050565b6000602082019050818103600083015261045f8161035e565b9050919050565b6000602082019050818103600083015261047f81610381565b9050919050565b600060208201905061049b60008301846103c7565b92915050565b600081905092915050565b600082825260208201905092915050565b60006104c8826104cf565b9050919050565b600073ffffffffffffffffffffffffffffffffffffffff82169050919050565b6000819050919050565b7f4661696c656420746f2073656e64204574686572000000000000000000000000600082015250565b7f47616d65206973206f7665720000000000000000000000000000000000000000600082015250565b7f596f752063616e206f6e6c792073656e64203120457468657200000000000000600082015250565b7f4e6f742077696e6e657200000000000000000000000000000000000000000000600082015250565b5056fea26469706673582212202527da6d5336def2526ceea89df1d513dcd130dd0ed0bd8a33e7094a616c60c564736f6c63430008040033",
  "linkReferences": {},
  "deployedLinkReferences": {}
}