{
  "contracts/fibonacciLibrary.sol": {
    "FibonacciLib": {
      "abi": [
        {
          "inputs": [],
          "name": "calculatedFibNumber",
          "outputs": [
            {
              "internalType": "uint256",
              "name": "",
              "type": "uint256"
            }
          ],
          "stateMutability": "view",
          "type": "function"
        },
        {
          "inputs": [
            {
              "internalType": "uint256",
              "name": "n",
              "type": "uint256"
            }
          ],
          "name": "setFibonacci",
          "outputs": [],
          "stateMutability": "nonpayable",
          "type": "function"
        },
        {
          "inputs": [
            {
              "internalType": "uint256",
              "name": "_start",
              "type": "uint256"
            }
          ],
          "name": "setStart",
          "outputs": [],
          "stateMutability": "nonpayable",
          "type": "function"
        },
        {
          "inputs": [],
          "name": "start",
          "outputs": [
            {
              "internalType": "uint256",
              "name": "",
              "type": "uint256"
            }
          ],
          "stateMutability": "view",
          "type": "function"
        }
      ],
      "evm": {
        "bytecode": {
          "linkReferences": {},
          "object": "608060405234801561001057600080fd5b506102d4806100206000396000f3fe608060405234801561001057600080fd5b506004361061004c5760003560e01c8063bbe1d75b14610051578063be9a65551461006f578063f6a03ebf1461008d578063fe75faab146100a9575b600080fd5b6100596100c5565b60405161006691906101a9565b60405180910390f35b6100776100cb565b60405161008491906101a9565b60405180910390f35b6100a760048036038101906100a29190610171565b6100d1565b005b6100c360048036038101906100be9190610171565b6100db565b005b60015481565b60005481565b8060008190555050565b6100e4816100ed565b60018190555050565b600080821415610101576000549050610157565b600182141561012057600160005461011991906101c4565b9050610157565b610135600283610130919061021a565b6100ed565b61014a600184610145919061021a565b6100ed565b61015491906101c4565b90505b919050565b60008135905061016b81610287565b92915050565b60006020828403121561018357600080fd5b60006101918482850161015c565b91505092915050565b6101a38161024e565b82525050565b60006020820190506101be600083018461019a565b92915050565b60006101cf8261024e565b91506101da8361024e565b9250827fffffffffffffffffffffffffffffffffffffffffffffffffffffffffffffffff0382111561020f5761020e610258565b5b828201905092915050565b60006102258261024e565b91506102308361024e565b92508282101561024357610242610258565b5b828203905092915050565b6000819050919050565b7f4e487b7100000000000000000000000000000000000000000000000000000000600052601160045260246000fd5b6102908161024e565b811461029b57600080fd5b5056fea2646970667358221220d05a3af695f934ed74f079d1cc73cccd1823e77cb5df1457734f08a8b2637fc564736f6c63430008040033",
          "opcodes": "PUSH1 0x80 PUSH1 0x40 MSTORE CALLVALUE DUP1 ISZERO PUSH2 0x10 JUMPI PUSH1 0x0 DUP1 REVERT JUMPDEST POP PUSH2 0x2D4 DUP1 PUSH2 0x20 PUSH1 0x0 CODECOPY PUSH1 0x0 RETURN INVALID PUSH1 0x80 PUSH1 0x40 MSTORE CALLVALUE DUP1 ISZERO PUSH2 0x10 JUMPI PUSH1 0x0 DUP1 REVERT JUMPDEST POP PUSH1 0x4 CALLDATASIZE LT PUSH2 0x4C JUMPI PUSH1 0x0 CALLDATALOAD PUSH1 0xE0 SHR DUP1 PUSH4 0xBBE1D75B EQ PUSH2 0x51 JUMPI DUP1 PUSH4 0xBE9A6555 EQ PUSH2 0x6F JUMPI DUP1 PUSH4 0xF6A03EBF EQ PUSH2 0x8D JUMPI DUP1 PUSH4 0xFE75FAAB EQ PUSH2 0xA9 JUMPI JUMPDEST PUSH1 0x0 DUP1 REVERT JUMPDEST PUSH2 0x59 PUSH2 0xC5 JUMP JUMPDEST PUSH1 0x40 MLOAD PUSH2 0x66 SWAP2 SWAP1 PUSH2 0x1A9 JUMP JUMPDEST PUSH1 0x40 MLOAD DUP1 SWAP2 SUB SWAP1 RETURN JUMPDEST PUSH2 0x77 PUSH2 0xCB JUMP JUMPDEST PUSH1 0x40 MLOAD PUSH2 0x84 SWAP2 SWAP1 PUSH2 0x1A9 JUMP JUMPDEST PUSH1 0x40 MLOAD DUP1 SWAP2 SUB SWAP1 RETURN JUMPDEST PUSH2 0xA7 PUSH1 0x4 DUP1 CALLDATASIZE SUB DUP2 ADD SWAP1 PUSH2 0xA2 SWAP2 SWAP1 PUSH2 0x171 JUMP JUMPDEST PUSH2 0xD1 JUMP JUMPDEST STOP JUMPDEST PUSH2 0xC3 PUSH1 0x4 DUP1 CALLDATASIZE SUB DUP2 ADD SWAP1 PUSH2 0xBE SWAP2 SWAP1 PUSH2 0x171 JUMP JUMPDEST PUSH2 0xDB JUMP JUMPDEST STOP JUMPDEST PUSH1 0x1 SLOAD DUP2 JUMP JUMPDEST PUSH1 0x0 SLOAD DUP2 JUMP JUMPDEST DUP1 PUSH1 0x0 DUP2 SWAP1 SSTORE POP POP JUMP JUMPDEST PUSH2 0xE4 DUP2 PUSH2 0xED JUMP JUMPDEST PUSH1 0x1 DUP2 SWAP1 SSTORE POP POP JUMP JUMPDEST PUSH1 0x0 DUP1 DUP3 EQ ISZERO PUSH2 0x101 JUMPI PUSH1 0x0 SLOAD SWAP1 POP PUSH2 0x157 JUMP JUMPDEST PUSH1 0x1 DUP3 EQ ISZERO PUSH2 0x120 JUMPI PUSH1 0x1 PUSH1 0x0 SLOAD PUSH2 0x119 SWAP2 SWAP1 PUSH2 0x1C4 JUMP JUMPDEST SWAP1 POP PUSH2 0x157 JUMP JUMPDEST PUSH2 0x135 PUSH1 0x2 DUP4 PUSH2 0x130 SWAP2 SWAP1 PUSH2 0x21A JUMP JUMPDEST PUSH2 0xED JUMP JUMPDEST PUSH2 0x14A PUSH1 0x1 DUP5 PUSH2 0x145 SWAP2 SWAP1 PUSH2 0x21A JUMP JUMPDEST PUSH2 0xED JUMP JUMPDEST PUSH2 0x154 SWAP2 SWAP1 PUSH2 0x1C4 JUMP JUMPDEST SWAP1 POP JUMPDEST SWAP2 SWAP1 POP JUMP JUMPDEST PUSH1 0x0 DUP2 CALLDATALOAD SWAP1 POP PUSH2 0x16B DUP2 PUSH2 0x287 JUMP JUMPDEST SWAP3 SWAP2 POP POP JUMP JUMPDEST PUSH1 0x0 PUSH1 0x20 DUP3 DUP5 SUB SLT ISZERO PUSH2 0x183 JUMPI PUSH1 0x0 DUP1 REVERT JUMPDEST PUSH1 0x0 PUSH2 0x191 DUP5 DUP3 DUP6 ADD PUSH2 0x15C JUMP JUMPDEST SWAP2 POP POP SWAP3 SWAP2 POP POP JUMP JUMPDEST PUSH2 0x1A3 DUP2 PUSH2 0x24E JUMP JUMPDEST DUP3 MSTORE POP POP JUMP JUMPDEST PUSH1 0x0 PUSH1 0x20 DUP3 ADD SWAP1 POP PUSH2 0x1BE PUSH1 0x0 DUP4 ADD DUP5 PUSH2 0x19A JUMP JUMPDEST SWAP3 SWAP2 POP POP JUMP JUMPDEST PUSH1 0x0 PUSH2 0x1CF DUP3 PUSH2 0x24E JUMP JUMPDEST SWAP2 POP PUSH2 0x1DA DUP4 PUSH2 0x24E JUMP JUMPDEST SWAP3 POP DUP3 PUSH32 0xFFFFFFFFFFFFFFFFFFFFFFFFFFFFFFFFFFFFFFFFFFFFFFFFFFFFFFFFFFFFFFFF SUB DUP3 GT ISZERO PUSH2 0x20F JUMPI PUSH2 0x20E PUSH2 0x258 JUMP JUMPDEST JUMPDEST DUP3 DUP3 ADD SWAP1 POP SWAP3 SWAP2 POP POP JUMP JUMPDEST PUSH1 0x0 PUSH2 0x225 DUP3 PUSH2 0x24E JUMP JUMPDEST SWAP2 POP PUSH2 0x230 DUP4 PUSH2 0x24E JUMP JUMPDEST SWAP3 POP DUP3 DUP3 LT ISZERO PUSH2 0x243 JUMPI PUSH2 0x242 PUSH2 0x258 JUMP JUMPDEST JUMPDEST DUP3 DUP3 SUB SWAP1 POP SWAP3 SWAP2 POP POP JUMP JUMPDEST PUSH1 0x0 DUP2 SWAP1 POP SWAP2 SWAP1 POP JUMP JUMPDEST PUSH32 0x4E487B7100000000000000000000000000000000000000000000000000000000 PUSH1 0x0 MSTORE PUSH1 0x11 PUSH1 0x4 MSTORE PUSH1 0x24 PUSH1 0x0 REVERT JUMPDEST PUSH2 0x290 DUP2 PUSH2 0x24E JUMP JUMPDEST DUP2 EQ PUSH2 0x29B JUMPI PUSH1 0x0 DUP1 REVERT JUMPDEST POP JUMP INVALID LOG2 PUSH5 0x6970667358 0x22 SLT KECCAK256 0xD0 GAS GASPRICE 0xF6 SWAP6 0xF9 CALLVALUE 0xED PUSH21 0xF079D1CC73CCCD1823E77CB5DF1457734F08A8B263 PUSH32 0xC564736F6C634300080400330000000000000000000000000000000000000000 "
        },
        "methodIdentifiers": {
          "calculatedFibNumber()": "bbe1d75b",
          "setFibonacci(uint256)": "fe75faab",
          "setStart(uint256)": "f6a03ebf",
          "start()": "be9a6555"
        }
      }
    }
  }
}