{
  "_format": "hh-sol-artifact-1",
  "contractName": "FibonacciBalance",
  "sourceName": "contracts/delegatecall.sol",
  "abi": [
    {
      "inputs": [
        {
          "internalType": "address",
          "name": "_fibonacciLibrary",
          "type": "address"
        }
      ],
      "stateMutability": "payable",
      "type": "constructor"
    },
    {
      "stateMutability": "nonpayable",
      "type": "fallback"
    },
    {
      "inputs": [],
      "name": "calculatedFibNumber",
      "outputs": [
        {
          "internalType": "uint256",
          "name": "",
          "type": "uint256"
        }
      ],
      "stateMutability": "view",
      "type": "function"
    },
    {
      "inputs": [],
      "name": "fibonacciLibrary",
      "outputs": [
        {
          "internalType": "address",
          "name": "",
          "type": "address"
        }
      ],
      "stateMutability": "view",
      "type": "function"
    },
    {
      "inputs": [],
      "name": "start",
      "outputs": [
        {
          "internalType": "uint256",
          "name": "",
          "type": "uint256"
        }
      ],
      "stateMutability": "view",
      "type": "function"
    },
    {
      "inputs": [],
      "name": "withdraw",
      "outputs": [],
      "stateMutability": "nonpayable",
      "type": "function"
    },
    {
      "inputs": [],
      "name": "withdrawalCounter",
      "outputs": [
        {
          "internalType": "uint256",
          "name": "",
          "type": "uint256"
        }
      ],
      "stateMutability": "view",
      "type": "function"
    }
  ],
  "bytecode": "0x60806040526003600255604051610748380380610748833981810160405281019061002a9190610085565b806000806101000a81548173ffffffffffffffffffffffffffffffffffffffff021916908373ffffffffffffffffffffffffffffffffffffffff160217905550506100f7565b60008151905061007f816100e0565b92915050565b60006020828403121561009757600080fd5b60006100a584828501610070565b91505092915050565b60006100b9826100c0565b9050919050565b600073ffffffffffffffffffffffffffffffffffffffff82169050919050565b6100e9816100ae565b81146100f457600080fd5b50565b610642806101066000396000f3fe608060405234801561001057600080fd5b506004361061005b5760003560e01c80631d0e8e9a146100e957806320d786b5146101075780633ccfd60b14610125578063bbe1d75b1461012f578063be9a65551461014d5761005c565b5b60008054906101000a900473ffffffffffffffffffffffffffffffffffffffff1673ffffffffffffffffffffffffffffffffffffffff166000366040516100a4929190610406565b600060405180830381855af49150503d80600081146100df576040519150601f19603f3d011682016040523d82523d6000602084013e6100e4565b606091505b505050005b6100f161016b565b6040516100fe919061044d565b60405180910390f35b61010f61018f565b60405161011c9190610468565b60405180910390f35b61012d610195565b005b610137610355565b6040516101449190610468565b60405180910390f35b61015561035b565b6040516101629190610468565b60405180910390f35b60008054906101000a900473ffffffffffffffffffffffffffffffffffffffff1681565b60035481565b6001600360008282546101a891906104af565b92505081905550600033905060008054906101000a900473ffffffffffffffffffffffffffffffffffffffff1673ffffffffffffffffffffffffffffffffffffffff166040518060400160405280601581526020017f7365744669626f6e616363692875696e743235362900000000000000000000008152506003546040516024016102349190610468565b604051602081830303815290604052906040516102519190610436565b60405180910390207bffffffffffffffffffffffffffffffffffffffffffffffffffffffff19166020820180517bffffffffffffffffffffffffffffffffffffffffffffffffffffffff83818316178352505050506040516102b3919061041f565b600060405180830381855af49150503d80600081146102ee576040519150601f19603f3d011682016040523d82523d6000602084013e6102f3565b606091505b5050508073ffffffffffffffffffffffffffffffffffffffff166108fc670de0b6b3a76400006001546103269190610505565b9081150290604051600060405180830381858888f19350505050158015610351573d6000803e3d6000fd5b5050565b60015481565b60025481565b61036a8161055f565b82525050565b600061037c8385610499565b935061038983858461059b565b82840190509392505050565b60006103a082610483565b6103aa8185610499565b93506103ba8185602086016105aa565b80840191505092915050565b60006103d18261048e565b6103db81856104a4565b93506103eb8185602086016105aa565b80840191505092915050565b61040081610591565b82525050565b6000610413828486610370565b91508190509392505050565b600061042b8284610395565b915081905092915050565b600061044282846103c6565b915081905092915050565b60006020820190506104626000830184610361565b92915050565b600060208201905061047d60008301846103f7565b92915050565b600081519050919050565b600081519050919050565b600081905092915050565b600081905092915050565b60006104ba82610591565b91506104c583610591565b9250827fffffffffffffffffffffffffffffffffffffffffffffffffffffffffffffffff038211156104fa576104f96105dd565b5b828201905092915050565b600061051082610591565b915061051b83610591565b9250817fffffffffffffffffffffffffffffffffffffffffffffffffffffffffffffffff0483118215151615610554576105536105dd565b5b828202905092915050565b600061056a82610571565b9050919050565b600073ffffffffffffffffffffffffffffffffffffffff82169050919050565b6000819050919050565b82818337600083830152505050565b60005b838110156105c85780820151818401526020810190506105ad565b838111156105d7576000848401525b50505050565b7f4e487b7100000000000000000000000000000000000000000000000000000000600052601160045260246000fdfea2646970667358221220a86e6ff4b99d33b80d11e11e08a34b5b0f6df5ccc71c02f2f3f781ab9ef4ce8464736f6c63430008040033",
  "linkReferences": {},
  "deployedLinkReferences": {}
}