{
  "_format": "hh-sol-artifact-1",
  "contractName": "HackMe",
  "sourceName": "contracts/delegatecall.sol",
  "abi": [
    {
      "inputs": [
        {
          "internalType": "contract Lib",
          "name": "_lib",
          "type": "address"
        }
      ],
      "stateMutability": "nonpayable",
      "type": "constructor"
    },
    {
      "stateMutability": "payable",
      "type": "fallback"
    },
    {
      "inputs": [],
      "name": "getOwner",
      "outputs": [
        {
          "internalType": "address",
          "name": "",
          "type": "address"
        }
      ],
      "stateMutability": "view",
      "type": "function"
    },
    {
      "inputs": [],
      "name": "lib",
      "outputs": [
        {
          "internalType": "contract Lib",
          "name": "",
          "type": "address"
        }
      ],
      "stateMutability": "view",
      "type": "function"
    },
    {
      "inputs": [],
      "name": "owner",
      "outputs": [
        {
          "internalType": "address",
          "name": "",
          "type": "address"
        }
      ],
      "stateMutability": "view",
      "type": "function"
    }
  ],
  "bytecode": "0x608060405234801561001057600080fd5b506040516106ff3803806106ff833981810160405281019061003291906100ce565b336000806101000a81548173ffffffffffffffffffffffffffffffffffffffff021916908373ffffffffffffffffffffffffffffffffffffffff16021790555080600160006101000a81548173ffffffffffffffffffffffffffffffffffffffff021916908373ffffffffffffffffffffffffffffffffffffffff16021790555050610152565b6000815190506100c88161013b565b92915050565b6000602082840312156100e057600080fd5b60006100ee848285016100b9565b91505092915050565b60006101028261011b565b9050919050565b6000610114826100f7565b9050919050565b600073ffffffffffffffffffffffffffffffffffffffff82169050919050565b61014481610109565b811461014f57600080fd5b50565b61059e806101616000396000f3fe6080604052600436106100385760003560e01c8063893d20e81461015c5780638da5cb5b1461018757806392801230146101b257610039565b5b6100776040518060400160405280600481526020017f68657265000000000000000000000000000000000000000000000000000000008152506101dd565b6100a060008054906101000a900473ffffffffffffffffffffffffffffffffffffffff16610276565b6000600160009054906101000a900473ffffffffffffffffffffffffffffffffffffffff1673ffffffffffffffffffffffffffffffffffffffff166000366040516100ec929190610427565b600060405180830381855af49150503d8060008114610127576040519150601f19603f3d011682016040523d82523d6000602084013e61012c565b606091505b5050905061015960008054906101000a900473ffffffffffffffffffffffffffffffffffffffff16610276565b50005b34801561016857600080fd5b5061017161030f565b60405161017e9190610440565b60405180910390f35b34801561019357600080fd5b5061019c610338565b6040516101a99190610440565b60405180910390f35b3480156101be57600080fd5b506101c761035c565b6040516101d4919061045b565b60405180910390f35b610273816040516024016101f19190610476565b6040516020818303038152906040527f41304fac000000000000000000000000000000000000000000000000000000007bffffffffffffffffffffffffffffffffffffffffffffffffffffffff19166020820180517bffffffffffffffffffffffffffffffffffffffffffffffffffffffff8381831617835250505050610382565b50565b61030c8160405160240161028a9190610440565b6040516020818303038152906040527f2c2ecbc2000000000000000000000000000000000000000000000000000000007bffffffffffffffffffffffffffffffffffffffffffffffffffffffff19166020820180517bffffffffffffffffffffffffffffffffffffffffffffffffffffffff8381831617835250505050610382565b50565b60008060009054906101000a900473ffffffffffffffffffffffffffffffffffffffff16905090565b60008054906101000a900473ffffffffffffffffffffffffffffffffffffffff1681565b600160009054906101000a900473ffffffffffffffffffffffffffffffffffffffff1681565b60008151905060006a636f6e736f6c652e6c6f679050602083016000808483855afa5050505050565b6103b4816104bf565b82525050565b60006103c683856104a3565b93506103d3838584610515565b82840190509392505050565b6103e8816104f1565b82525050565b60006103f982610498565b61040381856104ae565b9350610413818560208601610524565b61041c81610557565b840191505092915050565b60006104348284866103ba565b91508190509392505050565b600060208201905061045560008301846103ab565b92915050565b600060208201905061047060008301846103df565b92915050565b6000602082019050818103600083015261049081846103ee565b905092915050565b600081519050919050565b600081905092915050565b600082825260208201905092915050565b60006104ca826104d1565b9050919050565b600073ffffffffffffffffffffffffffffffffffffffff82169050919050565b60006104fc82610503565b9050919050565b600061050e826104d1565b9050919050565b82818337600083830152505050565b60005b83811015610542578082015181840152602081019050610527565b83811115610551576000848401525b50505050565b6000601f19601f830116905091905056fea2646970667358221220d7d1c8b6187845fa4ad95ef53a03dbb6141a845b5d85910803b4bed0b27d1e6b64736f6c63430008040033",
  "linkReferences": {},
  "deployedLinkReferences": {}
}