{
  "_format": "hh-sol-artifact-1",
  "contractName": "HackMe",
  "sourceName": "contracts/delegatecall.sol",
  "abi": [
    {
      "inputs": [
        {
          "internalType": "contract Lib",
          "name": "_lib",
          "type": "address"
        }
      ],
      "stateMutability": "nonpayable",
      "type": "constructor"
    },
    {
      "stateMutability": "payable",
      "type": "fallback"
    },
    {
      "inputs": [],
      "name": "getOwner",
      "outputs": [
        {
          "internalType": "address",
          "name": "",
          "type": "address"
        }
      ],
      "stateMutability": "view",
      "type": "function"
    },
    {
      "inputs": [],
      "name": "lib",
      "outputs": [
        {
          "internalType": "contract Lib",
          "name": "",
          "type": "address"
        }
      ],
      "stateMutability": "view",
      "type": "function"
    },
    {
      "inputs": [],
      "name": "owner",
      "outputs": [
        {
          "internalType": "address",
          "name": "",
          "type": "address"
        }
      ],
      "stateMutability": "view",
      "type": "function"
    }
  ],
  "bytecode": "0x608060405234801561001057600080fd5b50604051610459380380610459833981810160405281019061003291906100ce565b336000806101000a81548173ffffffffffffffffffffffffffffffffffffffff021916908373ffffffffffffffffffffffffffffffffffffffff16021790555080600160006101000a81548173ffffffffffffffffffffffffffffffffffffffff021916908373ffffffffffffffffffffffffffffffffffffffff16021790555050610152565b6000815190506100c88161013b565b92915050565b6000602082840312156100e057600080fd5b60006100ee848285016100b9565b91505092915050565b60006101028261011b565b9050919050565b6000610114826100f7565b9050919050565b600073ffffffffffffffffffffffffffffffffffffffff82169050919050565b61014481610109565b811461014f57600080fd5b50565b6102f8806101616000396000f3fe6080604052600436106100385760003560e01c8063893d20e8146100cc5780638da5cb5b146100f7578063928012301461012257610039565b5b6000600160009054906101000a900473ffffffffffffffffffffffffffffffffffffffff1673ffffffffffffffffffffffffffffffffffffffff16600036604051610085929190610203565b600060405180830381855af49150503d80600081146100c0576040519150601f19603f3d011682016040523d82523d6000602084013e6100c5565b606091505b5050905050005b3480156100d857600080fd5b506100e161014d565b6040516100ee919061021c565b60405180910390f35b34801561010357600080fd5b5061010c610176565b604051610119919061021c565b60405180910390f35b34801561012e57600080fd5b5061013761019a565b6040516101449190610237565b60405180910390f35b60008060009054906101000a900473ffffffffffffffffffffffffffffffffffffffff16905090565b60008054906101000a900473ffffffffffffffffffffffffffffffffffffffff1681565b600160009054906101000a900473ffffffffffffffffffffffffffffffffffffffff1681565b6101c98161025d565b82525050565b60006101db8385610252565b93506101e88385846102b3565b82840190509392505050565b6101fd8161028f565b82525050565b60006102108284866101cf565b91508190509392505050565b600060208201905061023160008301846101c0565b92915050565b600060208201905061024c60008301846101f4565b92915050565b600081905092915050565b60006102688261026f565b9050919050565b600073ffffffffffffffffffffffffffffffffffffffff82169050919050565b600061029a826102a1565b9050919050565b60006102ac8261026f565b9050919050565b8281833760008383015250505056fea264697066735822122029007332d8e681fb870b9e409324296c1af18f3f6c62c9d0d1f94810f76c90de64736f6c63430008040033",
  "linkReferences": {},
  "deployedLinkReferences": {}
}