{
  "_format": "hh-sol-artifact-1",
  "contractName": "HackMe",
  "sourceName": "contracts/delegatecall.sol",
  "abi": [
    {
      "inputs": [
        {
          "internalType": "contract Lib",
          "name": "_lib",
          "type": "address"
        }
      ],
      "stateMutability": "nonpayable",
      "type": "constructor"
    },
    {
      "stateMutability": "payable",
      "type": "fallback"
    },
    {
      "inputs": [],
      "name": "lib",
      "outputs": [
        {
          "internalType": "contract Lib",
          "name": "",
          "type": "address"
        }
      ],
      "stateMutability": "view",
      "type": "function"
    },
    {
      "inputs": [],
      "name": "owner",
      "outputs": [
        {
          "internalType": "address",
          "name": "",
          "type": "address"
        }
      ],
      "stateMutability": "view",
      "type": "function"
    }
  ],
  "bytecode": "0x608060405234801561001057600080fd5b506040516105b13803806105b1833981810160405281019061003291906100ce565b336000806101000a81548173ffffffffffffffffffffffffffffffffffffffff021916908373ffffffffffffffffffffffffffffffffffffffff16021790555080600160006101000a81548173ffffffffffffffffffffffffffffffffffffffff021916908373ffffffffffffffffffffffffffffffffffffffff16021790555050610152565b6000815190506100c88161013b565b92915050565b6000602082840312156100e057600080fd5b60006100ee848285016100b9565b91505092915050565b60006101028261011b565b9050919050565b6000610114826100f7565b9050919050565b600073ffffffffffffffffffffffffffffffffffffffff82169050919050565b61014481610109565b811461014f57600080fd5b50565b610450806101616000396000f3fe60806040526004361061002d5760003560e01c80638da5cb5b146100fb57806392801230146101265761002e565b5b61006c6040518060400160405280600481526020017f6865726500000000000000000000000000000000000000000000000000000000815250610151565b600160009054906101000a900473ffffffffffffffffffffffffffffffffffffffff1673ffffffffffffffffffffffffffffffffffffffff166000366040516100b69291906102d9565b600060405180830381855af49150503d80600081146100f1576040519150601f19603f3d011682016040523d82523d6000602084013e6100f6565b606091505b505050005b34801561010757600080fd5b506101106101ea565b60405161011d91906102f2565b60405180910390f35b34801561013257600080fd5b5061013b61020e565b604051610148919061030d565b60405180910390f35b6101e7816040516024016101659190610328565b6040516020818303038152906040527f41304fac000000000000000000000000000000000000000000000000000000007bffffffffffffffffffffffffffffffffffffffffffffffffffffffff19166020820180517bffffffffffffffffffffffffffffffffffffffffffffffffffffffff8381831617835250505050610234565b50565b60008054906101000a900473ffffffffffffffffffffffffffffffffffffffff1681565b600160009054906101000a900473ffffffffffffffffffffffffffffffffffffffff1681565b60008151905060006a636f6e736f6c652e6c6f679050602083016000808483855afa5050505050565b61026681610371565b82525050565b60006102788385610355565b93506102858385846103c7565b82840190509392505050565b61029a816103a3565b82525050565b60006102ab8261034a565b6102b58185610360565b93506102c58185602086016103d6565b6102ce81610409565b840191505092915050565b60006102e682848661026c565b91508190509392505050565b6000602082019050610307600083018461025d565b92915050565b60006020820190506103226000830184610291565b92915050565b6000602082019050818103600083015261034281846102a0565b905092915050565b600081519050919050565b600081905092915050565b600082825260208201905092915050565b600061037c82610383565b9050919050565b600073ffffffffffffffffffffffffffffffffffffffff82169050919050565b60006103ae826103b5565b9050919050565b60006103c082610383565b9050919050565b82818337600083830152505050565b60005b838110156103f45780820151818401526020810190506103d9565b83811115610403576000848401525b50505050565b6000601f19601f830116905091905056fea26469706673582212208a41ab8893a3ae83cbc4ab77e4fc2eeba16873902e22378267ae19d93348282364736f6c63430008040033",
  "linkReferences": {},
  "deployedLinkReferences": {}
}