{
  "_format": "hh-sol-artifact-1",
  "contractName": "Lib",
  "sourceName": "contracts/delegatecall.sol",
  "abi": [
    {
      "inputs": [],
      "stateMutability": "nonpayable",
      "type": "constructor"
    },
    {
      "inputs": [],
      "name": "owner",
      "outputs": [
        {
          "internalType": "address",
          "name": "",
          "type": "address"
        }
      ],
      "stateMutability": "view",
      "type": "function"
    },
    {
      "inputs": [],
      "name": "pwn",
      "outputs": [],
      "stateMutability": "payable",
      "type": "function"
    }
  ],
  "bytecode": "0x608060405234801561001057600080fd5b50336000806101000a81548173ffffffffffffffffffffffffffffffffffffffff021916908373ffffffffffffffffffffffffffffffffffffffff160217905550610316806100606000396000f3fe6080604052600436106100295760003560e01c80638da5cb5b1461002e578063dd365b8b14610059575b600080fd5b34801561003a57600080fd5b50610043610063565b6040516100509190610211565b60405180910390f35b610061610087565b005b60008054906101000a900473ffffffffffffffffffffffffffffffffffffffff1681565b6100c56040518060400160405280600781526020017f7768796e6f742000000000000000000000000000000000000000000000000000815250610107565b336000806101000a81548173ffffffffffffffffffffffffffffffffffffffff021916908373ffffffffffffffffffffffffffffffffffffffff160217905550565b61019d8160405160240161011b919061022c565b6040516020818303038152906040527f41304fac000000000000000000000000000000000000000000000000000000007bffffffffffffffffffffffffffffffffffffffffffffffffffffffff19166020820180517bffffffffffffffffffffffffffffffffffffffffffffffffffffffff83818316178352505050506101a0565b50565b60008151905060006a636f6e736f6c652e6c6f679050602083016000808483855afa5050505050565b6101d28161026a565b82525050565b60006101e38261024e565b6101ed8185610259565b93506101fd81856020860161029c565b610206816102cf565b840191505092915050565b600060208201905061022660008301846101c9565b92915050565b6000602082019050818103600083015261024681846101d8565b905092915050565b600081519050919050565b600082825260208201905092915050565b60006102758261027c565b9050919050565b600073ffffffffffffffffffffffffffffffffffffffff82169050919050565b60005b838110156102ba57808201518184015260208101905061029f565b838111156102c9576000848401525b50505050565b6000601f19601f830116905091905056fea264697066735822122060e3506afa354e3dec366195b3c9ec98083308705a8bfaf1276077d6e6a737eb64736f6c63430008040033",
  "linkReferences": {},
  "deployedLinkReferences": {}
}