{
  "_format": "hh-sol-artifact-1",
  "contractName": "Lib",
  "sourceName": "contracts/delegatecall.sol",
  "abi": [
    {
      "inputs": [],
      "stateMutability": "nonpayable",
      "type": "constructor"
    },
    {
      "inputs": [],
      "name": "owner",
      "outputs": [
        {
          "internalType": "address",
          "name": "",
          "type": "address"
        }
      ],
      "stateMutability": "view",
      "type": "function"
    },
    {
      "inputs": [],
      "name": "pwn",
      "outputs": [],
      "stateMutability": "payable",
      "type": "function"
    }
  ],
  "bytecode": "0x608060405234801561001057600080fd5b50336000806101000a81548173ffffffffffffffffffffffffffffffffffffffff021916908373ffffffffffffffffffffffffffffffffffffffff16021790555061015b806100606000396000f3fe6080604052600436106100295760003560e01c80638da5cb5b1461002e578063dd365b8b14610059575b600080fd5b34801561003a57600080fd5b50610043610063565b60405161005091906100d8565b60405180910390f35b610061610087565b005b60008054906101000a900473ffffffffffffffffffffffffffffffffffffffff1681565b336000806101000a81548173ffffffffffffffffffffffffffffffffffffffff021916908373ffffffffffffffffffffffffffffffffffffffff160217905550565b6100d2816100f3565b82525050565b60006020820190506100ed60008301846100c9565b92915050565b60006100fe82610105565b9050919050565b600073ffffffffffffffffffffffffffffffffffffffff8216905091905056fea2646970667358221220c1d50c4bf21daa8b7eda93c485457bcb49697906c015b14ed2ee0ccd91d38e7264736f6c63430008040033",
  "linkReferences": {},
  "deployedLinkReferences": {}
}