{
  "_format": "hh-sol-artifact-1",
  "contractName": "Lib",
  "sourceName": "contracts/delegatecall.sol",
  "abi": [
    {
      "inputs": [],
      "stateMutability": "nonpayable",
      "type": "constructor"
    },
    {
      "inputs": [],
      "name": "getOwner",
      "outputs": [
        {
          "internalType": "address",
          "name": "",
          "type": "address"
        }
      ],
      "stateMutability": "view",
      "type": "function"
    },
    {
      "inputs": [],
      "name": "owner",
      "outputs": [
        {
          "internalType": "address",
          "name": "",
          "type": "address"
        }
      ],
      "stateMutability": "view",
      "type": "function"
    },
    {
      "inputs": [
        {
          "internalType": "address",
          "name": "_Owner",
          "type": "address"
        }
      ],
      "name": "pwn",
      "outputs": [],
      "stateMutability": "nonpayable",
      "type": "function"
    }
  ],
  "bytecode": "0x608060405234801561001057600080fd5b50336000806101000a81548173ffffffffffffffffffffffffffffffffffffffff021916908373ffffffffffffffffffffffffffffffffffffffff1602179055506103d0806100606000396000f3fe608060405234801561001057600080fd5b50600436106100415760003560e01c806302c6591d14610046578063893d20e8146100625780638da5cb5b14610080575b600080fd5b610060600480360381019061005b9190610243565b61009e565b005b61006a61011f565b60405161007791906102b4565b60405180910390f35b610088610148565b60405161009591906102b4565b60405180910390f35b6100dc6040518060400160405280600481526020017f686572650000000000000000000000000000000000000000000000000000000081525061016c565b806000806101000a81548173ffffffffffffffffffffffffffffffffffffffff021916908373ffffffffffffffffffffffffffffffffffffffff16021790555050565b60008060009054906101000a900473ffffffffffffffffffffffffffffffffffffffff16905090565b60008054906101000a900473ffffffffffffffffffffffffffffffffffffffff1681565b6102028160405160240161018091906102cf565b6040516020818303038152906040527f41304fac000000000000000000000000000000000000000000000000000000007bffffffffffffffffffffffffffffffffffffffffffffffffffffffff19166020820180517bffffffffffffffffffffffffffffffffffffffffffffffffffffffff8381831617835250505050610205565b50565b60008151905060006a636f6e736f6c652e6c6f679050602083016000808483855afa5050505050565b60008135905061023d81610383565b92915050565b60006020828403121561025557600080fd5b60006102638482850161022e565b91505092915050565b6102758161030d565b82525050565b6000610286826102f1565b61029081856102fc565b93506102a081856020860161033f565b6102a981610372565b840191505092915050565b60006020820190506102c9600083018461026c565b92915050565b600060208201905081810360008301526102e9818461027b565b905092915050565b600081519050919050565b600082825260208201905092915050565b60006103188261031f565b9050919050565b600073ffffffffffffffffffffffffffffffffffffffff82169050919050565b60005b8381101561035d578082015181840152602081019050610342565b8381111561036c576000848401525b50505050565b6000601f19601f8301169050919050565b61038c8161030d565b811461039757600080fd5b5056fea26469706673582212203e445b40572e6672707e947298d63ea25ceb3168c76650fd7bbc5d120630f49964736f6c63430008040033",
  "linkReferences": {},
  "deployedLinkReferences": {}
}