{
  "_format": "hh-sol-artifact-1",
  "contractName": "vault",
  "sourceName": "contracts/identifier.sol",
  "abi": [
    {
      "inputs": [
        {
          "internalType": "address",
          "name": "_owner",
          "type": "address"
        }
      ],
      "stateMutability": "nonpayable",
      "type": "constructor"
    },
    {
      "inputs": [],
      "name": "sendstored",
      "outputs": [],
      "stateMutability": "nonpayable",
      "type": "function"
    },
    {
      "inputs": [],
      "name": "store",
      "outputs": [],
      "stateMutability": "payable",
      "type": "function"
    },
    {
      "inputs": [],
      "name": "withdraw",
      "outputs": [],
      "stateMutability": "nonpayable",
      "type": "function"
    }
  ],
  "bytecode": "0x608060405234801561001057600080fd5b5060405161026f38038061026f8339818101604052810190610032919061008d565b806000806101000a81548173ffffffffffffffffffffffffffffffffffffffff021916908373ffffffffffffffffffffffffffffffffffffffff160217905550506100ff565b600081519050610087816100e8565b92915050565b60006020828403121561009f57600080fd5b60006100ad84828501610078565b91505092915050565b60006100c1826100c8565b9050919050565b600073ffffffffffffffffffffffffffffffffffffffff82169050919050565b6100f1816100b6565b81146100fc57600080fd5b50565b6101618061010e6000396000f3fe6080604052600436106100345760003560e01c80633ccfd60b14610039578063975057e714610050578063e6f8ba751461005a575b600080fd5b34801561004557600080fd5b5061004e610071565b005b6100586100e0565b005b34801561006657600080fd5b5061006f6100e2565b005b60008054906101000a900473ffffffffffffffffffffffffffffffffffffffff1673ffffffffffffffffffffffffffffffffffffffff163373ffffffffffffffffffffffffffffffffffffffff16146100c957600080fd5b600047116100d657600080fd5b6100de6100e2565b565b565b3373ffffffffffffffffffffffffffffffffffffffff166108fc479081150290604051600060405180830381858888f19350505050158015610128573d6000803e3d6000fd5b5056fea2646970667358221220e8dafb40b758f22ad791446c5500a72321d4198efb0aa2b5d3af9522b88d5b7b64736f6c63430008040033",
  "linkReferences": {},
  "deployedLinkReferences": {}
}