{
  "_format": "hh-sol-artifact-1",
  "contractName": "FindThisHash",
  "sourceName": "contracts/Frontrunning.sol",
  "abi": [
    {
      "inputs": [],
      "stateMutability": "payable",
      "type": "constructor"
    },
    {
      "inputs": [],
      "name": "hash",
      "outputs": [
        {
          "internalType": "bytes32",
          "name": "",
          "type": "bytes32"
        }
      ],
      "stateMutability": "view",
      "type": "function"
    },
    {
      "inputs": [
        {
          "internalType": "string",
          "name": "solution",
          "type": "string"
        }
      ],
      "name": "solve",
      "outputs": [],
      "stateMutability": "nonpayable",
      "type": "function"
    }
  ],
  "bytecode": "0x6080604052610588806100136000396000f3fe608060405234801561001057600080fd5b50600436106100365760003560e01c806309bd5a601461003b57806376fe1e9214610059575b600080fd5b610043610075565b604051610050919061035d565b60405180910390f35b610073600480360381019061006e9190610247565b61009c565b005b7f564ccaf7594d66b1eaaea24fe01f0585bf52ee70852af4eac0cc4b04711cd0e260001b81565b806040516020016100ad9190610331565b604051602081830303815290604052805190602001207f564ccaf7594d66b1eaaea24fe01f0585bf52ee70852af4eac0cc4b04711cd0e260001b14610127576040517f08c379a000000000000000000000000000000000000000000000000000000000815260040161011e90610378565b60405180910390fd5b60003373ffffffffffffffffffffffffffffffffffffffff16678ac7230489e8000060405161015590610348565b60006040518083038185875af1925050503d8060008114610192576040519150601f19603f3d011682016040523d82523d6000602084013e610197565b606091505b50509050806101db576040517f08c379a00000000000000000000000000000000000000000000000000000000081526004016101d290610398565b60405180910390fd5b5050565b60006101f26101ed846103dd565b6103b8565b90508281526020810184848401111561020a57600080fd5b61021584828561044a565b509392505050565b600082601f83011261022e57600080fd5b813561023e8482602086016101df565b91505092915050565b60006020828403121561025957600080fd5b600082013567ffffffffffffffff81111561027357600080fd5b61027f8482850161021d565b91505092915050565b61029181610440565b82525050565b60006102a28261040e565b6102ac8185610435565b93506102bc818560208601610459565b80840191505092915050565b60006102d5601083610424565b91506102e0826104fd565b602082019050919050565b60006102f8601483610424565b915061030382610526565b602082019050919050565b600061031b600083610419565b91506103268261054f565b600082019050919050565b600061033d8284610297565b915081905092915050565b60006103538261030e565b9150819050919050565b60006020820190506103726000830184610288565b92915050565b60006020820190508181036000830152610391816102c8565b9050919050565b600060208201905081810360008301526103b1816102eb565b9050919050565b60006103c26103d3565b90506103ce828261048c565b919050565b6000604051905090565b600067ffffffffffffffff8211156103f8576103f76104bd565b5b610401826104ec565b9050602081019050919050565b600081519050919050565b600081905092915050565b600082825260208201905092915050565b600081905092915050565b6000819050919050565b82818337600083830152505050565b60005b8381101561047757808201518184015260208101905061045c565b83811115610486576000848401525b50505050565b610495826104ec565b810181811067ffffffffffffffff821117156104b4576104b36104bd565b5b80604052505050565b7f4e487b7100000000000000000000000000000000000000000000000000000000600052604160045260246000fd5b6000601f19601f8301169050919050565b7f496e636f727265637420616e7377657200000000000000000000000000000000600082015250565b7f4661696c656420746f2073656e64204574686572000000000000000000000000600082015250565b5056fea264697066735822122078261d94b7b111d01acd2e6ec31e02d7c0eb1044f643f52869da45367f9dddae64736f6c63430008040033",
  "linkReferences": {},
  "deployedLinkReferences": {}
}