{
  "_format": "hh-sol-artifact-1",
  "contractName": "Phishable",
  "sourceName": "contracts/txorigin.sol",
  "abi": [
    {
      "inputs": [
        {
          "internalType": "address",
          "name": "_owner",
          "type": "address"
        }
      ],
      "stateMutability": "nonpayable",
      "type": "constructor"
    },
    {
      "inputs": [],
      "name": "deposit",
      "outputs": [],
      "stateMutability": "payable",
      "type": "function"
    },
    {
      "inputs": [],
      "name": "owner",
      "outputs": [
        {
          "internalType": "address",
          "name": "",
          "type": "address"
        }
      ],
      "stateMutability": "view",
      "type": "function"
    },
    {
      "inputs": [
        {
          "internalType": "address payable",
          "name": "_recipient",
          "type": "address"
        }
      ],
      "name": "withdrawAll",
      "outputs": [],
      "stateMutability": "nonpayable",
      "type": "function"
    }
  ],
  "bytecode": "0x608060405234801561001057600080fd5b506040516103663803806103668339818101604052810190610032919061008d565b806000806101000a81548173ffffffffffffffffffffffffffffffffffffffff021916908373ffffffffffffffffffffffffffffffffffffffff160217905550506100ff565b600081519050610087816100e8565b92915050565b60006020828403121561009f57600080fd5b60006100ad84828501610078565b91505092915050565b60006100c1826100c8565b9050919050565b600073ffffffffffffffffffffffffffffffffffffffff82169050919050565b6100f1816100b6565b81146100fc57600080fd5b50565b6102588061010e6000396000f3fe6080604052600436106100345760003560e01c80638da5cb5b14610039578063d0e30db014610064578063fa09e6301461006e575b600080fd5b34801561004557600080fd5b5061004e610097565b60405161005b91906101ac565b60405180910390f35b61006c6100bb565b005b34801561007a57600080fd5b5061009560048036038101906100909190610174565b6100bd565b005b60008054906101000a900473ffffffffffffffffffffffffffffffffffffffff1681565b565b60008054906101000a900473ffffffffffffffffffffffffffffffffffffffff1673ffffffffffffffffffffffffffffffffffffffff163273ffffffffffffffffffffffffffffffffffffffff161461011557600080fd5b8073ffffffffffffffffffffffffffffffffffffffff166108fc479081150290604051600060405180830381858888f1935050505015801561015b573d6000803e3d6000fd5b5050565b60008135905061016e8161020b565b92915050565b60006020828403121561018657600080fd5b60006101948482850161015f565b91505092915050565b6101a6816101c7565b82525050565b60006020820190506101c1600083018461019d565b92915050565b60006101d2826101eb565b9050919050565b60006101e4826101eb565b9050919050565b600073ffffffffffffffffffffffffffffffffffffffff82169050919050565b610214816101d9565b811461021f57600080fd5b5056fea2646970667358221220fc415900c20951c18495d0eb95bdab21bc6a1e51298dee4d739b1676e306620f64736f6c63430008040033",
  "linkReferences": {},
  "deployedLinkReferences": {}
}