{
  "_format": "hh-sol-artifact-1",
  "contractName": "VulnerableToken",
  "sourceName": "contracts/Underflow.sol",
  "abi": [
    {
      "inputs": [
        {
          "internalType": "uint256",
          "name": "_initialSupply",
          "type": "uint256"
        }
      ],
      "stateMutability": "nonpayable",
      "type": "constructor"
    },
    {
      "inputs": [
        {
          "internalType": "address",
          "name": "_owner",
          "type": "address"
        }
      ],
      "name": "tokenBalanceOf",
      "outputs": [
        {
          "internalType": "uint256",
          "name": "",
          "type": "uint256"
        }
      ],
      "stateMutability": "view",
      "type": "function"
    },
    {
      "inputs": [],
      "name": "totalSupply",
      "outputs": [
        {
          "internalType": "uint256",
          "name": "",
          "type": "uint256"
        }
      ],
      "stateMutability": "view",
      "type": "function"
    },
    {
      "inputs": [
        {
          "internalType": "address",
          "name": "_to",
          "type": "address"
        },
        {
          "internalType": "uint256",
          "name": "_value",
          "type": "uint256"
        }
      ],
      "name": "transfer",
      "outputs": [
        {
          "internalType": "bool",
          "name": "",
          "type": "bool"
        }
      ],
      "stateMutability": "nonpayable",
      "type": "function"
    }
  ],
  "bytecode": "0x608060405234801561001057600080fd5b506040516107a03803806107a0833981810160405281019061003291906101ae565b8060018190556000803373ffffffffffffffffffffffffffffffffffffffff1673ffffffffffffffffffffffffffffffffffffffff168152602001908152602001600020819055506100cb6000803373ffffffffffffffffffffffffffffffffffffffff1673ffffffffffffffffffffffffffffffffffffffff168152602001908152602001600020546100d160201b6102651760201c565b50610222565b61016d816040516024016100e591906101e6565b6040516020818303038152906040527ff5b1bba9000000000000000000000000000000000000000000000000000000007bffffffffffffffffffffffffffffffffffffffffffffffffffffffff19166020820180517bffffffffffffffffffffffffffffffffffffffffffffffffffffffff838183161783525050505061017060201b60201c565b50565b60008151905060006a636f6e736f6c652e6c6f679050602083016000808483855afa5050505050565b6000815190506101a88161020b565b92915050565b6000602082840312156101c057600080fd5b60006101ce84828501610199565b91505092915050565b6101e081610201565b82525050565b60006020820190506101fb60008301846101d7565b92915050565b6000819050919050565b61021481610201565b811461021f57600080fd5b50565b61056f806102316000396000f3fe608060405234801561001057600080fd5b50600436106100415760003560e01c806318160ddd14610046578063a9059cbb14610064578063e42c08f214610094575b600080fd5b61004e6100c4565b60405161005b91906103ef565b60405180910390f35b61007e6004803603810190610079919061037a565b6100ca565b60405161008b91906103d4565b60405180910390f35b6100ae60048036038101906100a99190610351565b6101d6565b6040516100bb91906103ef565b60405180910390f35b60015481565b600080826000803373ffffffffffffffffffffffffffffffffffffffff1673ffffffffffffffffffffffffffffffffffffffff168152602001908152602001600020546101179190610460565b101561012257600080fd5b816000803373ffffffffffffffffffffffffffffffffffffffff1673ffffffffffffffffffffffffffffffffffffffff16815260200190815260200160002060008282546101709190610460565b92505081905550816000808573ffffffffffffffffffffffffffffffffffffffff1673ffffffffffffffffffffffffffffffffffffffff16815260200190815260200160002060008282546101c5919061040a565b925050819055506001905092915050565b600061021f6000808473ffffffffffffffffffffffffffffffffffffffff1673ffffffffffffffffffffffffffffffffffffffff16815260200190815260200160002054610265565b6000808373ffffffffffffffffffffffffffffffffffffffff1673ffffffffffffffffffffffffffffffffffffffff168152602001908152602001600020549050919050565b6102fb8160405160240161027991906103ef565b6040516020818303038152906040527ff5b1bba9000000000000000000000000000000000000000000000000000000007bffffffffffffffffffffffffffffffffffffffffffffffffffffffff19166020820180517bffffffffffffffffffffffffffffffffffffffffffffffffffffffff83818316178352505050506102fe565b50565b60008151905060006a636f6e736f6c652e6c6f679050602083016000808483855afa5050505050565b6000813590506103368161050b565b92915050565b60008135905061034b81610522565b92915050565b60006020828403121561036357600080fd5b600061037184828501610327565b91505092915050565b6000806040838503121561038d57600080fd5b600061039b85828601610327565b92505060206103ac8582860161033c565b9150509250929050565b6103bf816104a6565b82525050565b6103ce816104d2565b82525050565b60006020820190506103e960008301846103b6565b92915050565b600060208201905061040460008301846103c5565b92915050565b6000610415826104d2565b9150610420836104d2565b9250827fffffffffffffffffffffffffffffffffffffffffffffffffffffffffffffffff03821115610455576104546104dc565b5b828201905092915050565b600061046b826104d2565b9150610476836104d2565b925082821015610489576104886104dc565b5b828203905092915050565b600061049f826104b2565b9050919050565b60008115159050919050565b600073ffffffffffffffffffffffffffffffffffffffff82169050919050565b6000819050919050565b7f4e487b7100000000000000000000000000000000000000000000000000000000600052601160045260246000fd5b61051481610494565b811461051f57600080fd5b50565b61052b816104d2565b811461053657600080fd5b5056fea2646970667358221220faa4021932087cdc1334388098a7035caf75f81582d0121cbd92cfb110a5496964736f6c63430008040033",
  "linkReferences": {},
  "deployedLinkReferences": {}
}