{
  "_format": "hh-sol-artifact-1",
  "contractName": "intTar",
  "sourceName": "contracts/inttest.sol",
  "abi": [
    {
      "inputs": [],
      "stateMutability": "nonpayable",
      "type": "constructor"
    },
    {
      "inputs": [
        {
          "internalType": "int8",
          "name": "_in",
          "type": "int8"
        }
      ],
      "name": "test",
      "outputs": [],
      "stateMutability": "nonpayable",
      "type": "function"
    }
  ],
  "bytecode": "0x608060405234801561001057600080fd5b5060036000806101000a81548160ff021916908360000b60ff1602179055506101c38061003e6000396000f3fe608060405234801561001057600080fd5b506004361061002b5760003560e01c80632b58697e14610030575b600080fd5b61004a6004803603810190610045919061009c565b61004c565b005b806000808282829054906101000a900460000b61006991906100c5565b92506101000a81548160ff021916908360000b60ff16021790555050565b60008135905061009681610176565b92915050565b6000602082840312156100ae57600080fd5b60006100bc84828501610087565b91505092915050565b60006100d08261013a565b91506100db8361013a565b925081607f038313600083121516156100f7576100f6610147565b5b817fffffffffffffffffffffffffffffffffffffffffffffffffffffffffffffff8003831260008312161561012f5761012e610147565b5b828201905092915050565b60008160000b9050919050565b7f4e487b7100000000000000000000000000000000000000000000000000000000600052601160045260246000fd5b61017f8161013a565b811461018a57600080fd5b5056fea2646970667358221220b3002468275c356afece304d4344615bae5501dc4a2e7312bcc7927780c2f74a64736f6c63430008040033",
  "linkReferences": {},
  "deployedLinkReferences": {}
}