{
  "_format": "hh-sol-artifact-1",
  "contractName": "FibonacciLib",
  "sourceName": "contracts/fibonacciLibrary.sol",
  "abi": [
    {
      "inputs": [],
      "name": "calculatedFibNumber",
      "outputs": [
        {
          "internalType": "uint256",
          "name": "",
          "type": "uint256"
        }
      ],
      "stateMutability": "view",
      "type": "function"
    },
    {
      "inputs": [
        {
          "internalType": "uint256",
          "name": "n",
          "type": "uint256"
        }
      ],
      "name": "setFibonacci",
      "outputs": [],
      "stateMutability": "nonpayable",
      "type": "function"
    },
    {
      "inputs": [
        {
          "internalType": "uint256",
          "name": "_start",
          "type": "uint256"
        }
      ],
      "name": "setStart",
      "outputs": [],
      "stateMutability": "nonpayable",
      "type": "function"
    },
    {
      "inputs": [],
      "name": "start",
      "outputs": [
        {
          "internalType": "uint256",
          "name": "",
          "type": "uint256"
        }
      ],
      "stateMutability": "view",
      "type": "function"
    }
  ],
  "bytecode": "0x608060405234801561001057600080fd5b506102d4806100206000396000f3fe608060405234801561001057600080fd5b506004361061004c5760003560e01c8063bbe1d75b14610051578063be9a65551461006f578063f6a03ebf1461008d578063fe75faab146100a9575b600080fd5b6100596100c5565b60405161006691906101a9565b60405180910390f35b6100776100cb565b60405161008491906101a9565b60405180910390f35b6100a760048036038101906100a29190610171565b6100d1565b005b6100c360048036038101906100be9190610171565b6100db565b005b60015481565b60005481565b8060008190555050565b6100e4816100ed565b60018190555050565b600080821415610101576000549050610157565b600182141561012057600160005461011991906101c4565b9050610157565b610135600283610130919061021a565b6100ed565b61014a600184610145919061021a565b6100ed565b61015491906101c4565b90505b919050565b60008135905061016b81610287565b92915050565b60006020828403121561018357600080fd5b60006101918482850161015c565b91505092915050565b6101a38161024e565b82525050565b60006020820190506101be600083018461019a565b92915050565b60006101cf8261024e565b91506101da8361024e565b9250827fffffffffffffffffffffffffffffffffffffffffffffffffffffffffffffffff0382111561020f5761020e610258565b5b828201905092915050565b60006102258261024e565b91506102308361024e565b92508282101561024357610242610258565b5b828203905092915050565b6000819050919050565b7f4e487b7100000000000000000000000000000000000000000000000000000000600052601160045260246000fd5b6102908161024e565b811461029b57600080fd5b5056fea2646970667358221220d05a3af695f934ed74f079d1cc73cccd1823e77cb5df1457734f08a8b2637fc564736f6c63430008040033",
  "linkReferences": {},
  "deployedLinkReferences": {}
}